{
	"data": {
		"bytecode": {
			"linkReferences": {},
			"object": "608060405234801561001057600080fd5b506001600081905550610206806100286000396000f3fe608060405234801561001057600080fd5b50600436106100415760003560e01c8063209652551461004657806320ed8b8914610064578063648b7ce81461006e575b600080fd5b61004e610078565b60405161005b919061013e565b60405180910390f35b61006c610081565b005b6100766100d3565b005b60008054905090565b60008081548092919061009390610188565b91905055507f22ccb5ba3d32a9221c3efe39ffab06d1ddc4bd6684975ea75fa60f95ccff53de6000546040516100c9919061013e565b60405180910390a1565b6000808154809291906100e590610188565b91905055507fda0bc8b9b52da793a50e130494716550dab510a10a485be3f1b23d4da60ff4be60005460405161011b919061013e565b60405180910390a1565b6000819050919050565b61013881610125565b82525050565b6000602082019050610153600083018461012f565b92915050565b7f4e487b7100000000000000000000000000000000000000000000000000000000600052601160045260246000fd5b600061019382610125565b91507f7fffffffffffffffffffffffffffffffffffffffffffffffffffffffffffffff82036101c5576101c4610159565b5b60018201905091905056fea264697066735822122070b13c42faed99a3538782fe681510fa5cdb961c60a728bba526a7a634ff35ab64736f6c63430008110033",
			"opcodes": "PUSH1 0x80 PUSH1 0x40 MSTORE CALLVALUE DUP1 ISZERO PUSH2 0x10 JUMPI PUSH1 0x0 DUP1 REVERT JUMPDEST POP PUSH1 0x1 PUSH1 0x0 DUP2 SWAP1 SSTORE POP PUSH2 0x206 DUP1 PUSH2 0x28 PUSH1 0x0 CODECOPY PUSH1 0x0 RETURN INVALID PUSH1 0x80 PUSH1 0x40 MSTORE CALLVALUE DUP1 ISZERO PUSH2 0x10 JUMPI PUSH1 0x0 DUP1 REVERT JUMPDEST POP PUSH1 0x4 CALLDATASIZE LT PUSH2 0x41 JUMPI PUSH1 0x0 CALLDATALOAD PUSH1 0xE0 SHR DUP1 PUSH4 0x20965255 EQ PUSH2 0x46 JUMPI DUP1 PUSH4 0x20ED8B89 EQ PUSH2 0x64 JUMPI DUP1 PUSH4 0x648B7CE8 EQ PUSH2 0x6E JUMPI JUMPDEST PUSH1 0x0 DUP1 REVERT JUMPDEST PUSH2 0x4E PUSH2 0x78 JUMP JUMPDEST PUSH1 0x40 MLOAD PUSH2 0x5B SWAP2 SWAP1 PUSH2 0x13E JUMP JUMPDEST PUSH1 0x40 MLOAD DUP1 SWAP2 SUB SWAP1 RETURN JUMPDEST PUSH2 0x6C PUSH2 0x81 JUMP JUMPDEST STOP JUMPDEST PUSH2 0x76 PUSH2 0xD3 JUMP JUMPDEST STOP JUMPDEST PUSH1 0x0 DUP1 SLOAD SWAP1 POP SWAP1 JUMP JUMPDEST PUSH1 0x0 DUP1 DUP2 SLOAD DUP1 SWAP3 SWAP2 SWAP1 PUSH2 0x93 SWAP1 PUSH2 0x188 JUMP JUMPDEST SWAP2 SWAP1 POP SSTORE POP PUSH32 0x22CCB5BA3D32A9221C3EFE39FFAB06D1DDC4BD6684975EA75FA60F95CCFF53DE PUSH1 0x0 SLOAD PUSH1 0x40 MLOAD PUSH2 0xC9 SWAP2 SWAP1 PUSH2 0x13E JUMP JUMPDEST PUSH1 0x40 MLOAD DUP1 SWAP2 SUB SWAP1 LOG1 JUMP JUMPDEST PUSH1 0x0 DUP1 DUP2 SLOAD DUP1 SWAP3 SWAP2 SWAP1 PUSH2 0xE5 SWAP1 PUSH2 0x188 JUMP JUMPDEST SWAP2 SWAP1 POP SSTORE POP PUSH32 0xDA0BC8B9B52DA793A50E130494716550DAB510A10A485BE3F1B23D4DA60FF4BE PUSH1 0x0 SLOAD PUSH1 0x40 MLOAD PUSH2 0x11B SWAP2 SWAP1 PUSH2 0x13E JUMP JUMPDEST PUSH1 0x40 MLOAD DUP1 SWAP2 SUB SWAP1 LOG1 JUMP JUMPDEST PUSH1 0x0 DUP2 SWAP1 POP SWAP2 SWAP1 POP JUMP JUMPDEST PUSH2 0x138 DUP2 PUSH2 0x125 JUMP JUMPDEST DUP3 MSTORE POP POP JUMP JUMPDEST PUSH1 0x0 PUSH1 0x20 DUP3 ADD SWAP1 POP PUSH2 0x153 PUSH1 0x0 DUP4 ADD DUP5 PUSH2 0x12F JUMP JUMPDEST SWAP3 SWAP2 POP POP JUMP JUMPDEST PUSH32 0x4E487B7100000000000000000000000000000000000000000000000000000000 PUSH1 0x0 MSTORE PUSH1 0x11 PUSH1 0x4 MSTORE PUSH1 0x24 PUSH1 0x0 REVERT JUMPDEST PUSH1 0x0 PUSH2 0x193 DUP3 PUSH2 0x125 JUMP JUMPDEST SWAP2 POP PUSH32 0x7FFFFFFFFFFFFFFFFFFFFFFFFFFFFFFFFFFFFFFFFFFFFFFFFFFFFFFFFFFFFFFF DUP3 SUB PUSH2 0x1C5 JUMPI PUSH2 0x1C4 PUSH2 0x159 JUMP JUMPDEST JUMPDEST PUSH1 0x1 DUP3 ADD SWAP1 POP SWAP2 SWAP1 POP JUMP INVALID LOG2 PUSH5 0x6970667358 0x22 SLT KECCAK256 PUSH17 0xB13C42FAED99A3538782FE681510FA5CDB SWAP7 SHR PUSH1 0xA7 0x28 0xBB 0xA5 0x26 0xA7 0xA6 CALLVALUE SELFDESTRUCT CALLDATALOAD 0xAB PUSH5 0x736F6C6343 STOP ADDMOD GT STOP CALLER "
		},
		"gasEstimates": {
			"creation": {
				"codeDepositCost": "103600",
				"executionCost": "22267",
				"totalCost": "125867"
			},
			"external": {
				"Decrement()": "infinite",
				"Increment()": "infinite",
				"getValue()": "2415"
			}
		},
		"methodIdentifiers": {
			"Decrement()": "20ed8b89",
			"Increment()": "648b7ce8",
			"getValue()": "20965255"
		}
	},
	"abi": [
		{
			"inputs": [],
			"stateMutability": "nonpayable",
			"type": "constructor"
		},
		{
			"anonymous": false,
			"inputs": [
				{
					"indexed": false,
					"internalType": "int256",
					"name": "value",
					"type": "int256"
				}
			],
			"name": "Decremented",
			"type": "event"
		},
		{
			"anonymous": false,
			"inputs": [
				{
					"indexed": false,
					"internalType": "int256",
					"name": "value",
					"type": "int256"
				}
			],
			"name": "Incremented",
			"type": "event"
		},
		{
			"inputs": [],
			"name": "Decrement",
			"outputs": [],
			"stateMutability": "nonpayable",
			"type": "function"
		},
		{
			"inputs": [],
			"name": "Increment",
			"outputs": [],
			"stateMutability": "nonpayable",
			"type": "function"
		},
		{
			"inputs": [],
			"name": "getValue",
			"outputs": [
				{
					"internalType": "int256",
					"name": "",
					"type": "int256"
				}
			],
			"stateMutability": "view",
			"type": "function"
		}
	]
}